:1000000020C02FC02EC02DC02CC08FC12AC029C037
:1000100028C027C026C025C024C023C022C000009D
:10002000000037000000000038000000000036002B
:100030000202020202020102040810200102000072
:10004000040011241FBECFE5D2E0DEBFCDBF20E00B
:10005000A0E6B0E001C01D92AF36B207E1F7AFD124
:1000600087C2CECF813019F48AB58F7704C0823031
:1000700021F48AB58F7D8ABD0895833021F480B73D
:100080008F7D80BF0895843019F48CB58F7D8CBD31
:100090000895CF93DF9387FF11C08F7741F08130B0
:1000A00041F0823041F0833041F08FEF07C085E0AE
:1000B00005C082E003C084E001C083E0282F30E067
:1000C000F901E45CFF4F8491F901EA5CFF4FD491A0
:1000D000F901E05DFF4FC491CC2389F08111C2DFAB
:1000E000EC2FF0E0EE0FFF1FE65DFF4FA591B491FE
:1000F000EC91ED2381E090E021F480E002C080E00B
:1001000090E0DF91CF9108951F93CF93DF93162F47
:1001100087FF11C08F7741F0813041F0823041F08C
:10012000833041F08FEF07C085E005C082E003C057
:1001300084E001C083E0282F30E0F901E45CFF4F48
:100140008491F901EA5CFF4FD491F901E05DFF4F22
:10015000C491CC23D1F0811185DFEC2FF0E0EE0FBC
:10016000FF1FEC5DFF4FA591B491111108C09FB71F
:10017000F8948C91D095D823DC939FBF06C08FB79D
:10018000F894EC91DE2BDC938FBFDF91CF911F9120
:100190000895CF93DF9387FF11C08F7741F08130AF
:1001A00041F0823041F0833041F08FEF07C085E0AD
:1001B00005C082E003C084E001C083E090E0FC0160
:1001C000EA5CFF4F2491FC01E05DFF4F849188239E
:1001D00061F190E0880F991FFC01E25EFF4FC5912D
:1001E000D491FC01EC5DFF4FA591B491611109C060
:1001F0009FB7F8948881209582238883EC912E23E1
:100200000BC0623061F49FB7F8948881322F30952B
:1002100083238883EC912E2B2C939FBF06C08FB72E
:10022000F894E8812E2B28838FBFDF91CF9108951A
:100230003FB7F89480916B0090916C00A0916D0095
:10024000B0916E0022B708B601FE05C02F3F19F02D
:100250000196A11DB11D3FBFBA2FA92F982F882746
:10026000820F911DA11DB11DBC01CD0143E0660FA0
:10027000771F881F991F4A95D1F70895CF92DF9273
:10028000EF92FF92CF93DF936B017C01D1DFEB0103
:10029000C114D104E104F10499F0CADF6C1B7D0B99
:1002A000683E7340A8F3C114D104E104F10481F362
:1002B00081E0C81AD108E108F108C851DC4FEDCF40
:1002C000DF91CF91FF90EF90DF90CF9008952FB7FF
:1002D000F894609167007091680080916900909136
:1002E0006A002FBF0895CF93DF93EC0161E083E0B4
:1002F0000BDFC330D10528F0CC0FDD1F24972197E9
:10030000F1F7DF91CF910895CF93DF93EC0160E097
:1003100083E0FADEC330D10528F0CC0FDD1F24972F
:100320002197F1F7DF91CF9108951F920F920FB6A9
:100330000F9211242F933F938F939F93AF93BF936B
:100340008091670090916800A0916900B0916A0067
:100350003091660026E0230F2D3730F029E8230F77
:100360000396A11DB11D03C00296A11DB11D2093CE
:1003700066008093670090936800A0936900B09333
:100380006A0080916B0090916C00A0916D00B0911B
:100390006E000196A11DB11D80936B0090936C00BF
:1003A000A0936D00B0936E00BF91AF919F918F911C
:1003B0003F912F910F900FBE0F901F90189581B70E
:1003C00081BF8AB582608ABD8AB581608ABD83B7E4
:1003D000887F836083BF789489B7826089BF80B744
:1003E000807F80BF80B7806880BF80B7806480BF17
:1003F0008CB580648CBD8FEF8DBD80B7876080BF6A
:1004000086B18877866886B9379A60E080E0C1DE79
:1004100060E081E0BEDE61E082E0BBDE60E083E0C0
:10042000B8DE81E036DE7C01C1E0019709F0C0E072
:10043000809165008C1749F04ADF609361007093EA
:1004400062008093630090936400C093650081E034
:1004500020DE6C0181E0C816D10419F060E082E072
:1004600098DE35DF4B015C01C0E031DFDC01CB0100
:1004700088199909AA09BB0984369105A105B10516
:1004800030F480E006DE019781F7C1E0EECFCA9438
:10049000CD2819F061E082E07CDE809160008C174D
:1004A00049F015DF609361007093620080936300F0
:1004B00090936400C09360000ADFCC2309F452C01B
:1004C000EA94EF2809F44EC0C0906100D090620019
:1004D000E0906300F0906400DC01CB018C199D0971
:1004E000AE09BF098C329140A105B105D8F161E098
:1004F00083E04FDE61E083E007DE64E670E080E0E9
:1005000090E0BCDE88E293E2FFDE84E991E1EBDE7D
:10051000C0E2D0E09DECC92E92E3D92E95E0E92E01
:100520009DE5F92E80E392E0F7FE04C0EDDE80E465
:1005300096E003C0E9DE80E392E0D5DECC0CDD1C62
:10054000EE1CFF1C219771F780E392E0DDDE80E076
:1005500090E0C9DE60E083E01CDE68EE73E080E0DE
:1005600090E08CDE81E095DD682F82E0CDDD59CF13
:04057000F894FFCF2D
:00000001FF
