:100000001DC02CC02BC02AC029C053C127C026C088
:1000100025C024C023C022C021C020C01FC00000B2
:100020000000370000000000380002020202020255
:1000300001020408102001020000040011241FBE68
:10004000CFE5D2E0DEBFCDBF20E0A0E6B0E001C04A
:100050001D92AF36B207E1F776D168C2D1CF87FFE4
:1000600011C08F7741F0813041F0823041F0833010
:1000700041F08FEF07C085E005C082E003C084E057
:1000800001C083E090E0FC01EA5CFF4F2491FC0199
:10009000E05DFF4F3491FC01E65DFF4FE491EE23FC
:1000A00079F12223B1F0213019F48AB58F7704C099
:1000B000223021F48AB58F7D8ABD0BC0233021F414
:1000C00080B78F7D80BF05C0243019F48CB58F7D3B
:1000D0008CBDF0E0EE0FFF1FEC5DFF4FA591B491DA
:1000E000611108C09FB7F8948C91309538233C93E8
:1000F0009FBF08958FB7F894EC913E2B3C938FBF30
:100100000895CF93DF9387FF11C08F7741F081303F
:1001100041F0823041F0833041F08FEF07C085E03D
:1001200005C082E003C084E001C083E090E0FC01F0
:10013000E05DFF4F2491FC01E65DFF4F8491882331
:1001400061F190E0880F991FFC01E25EFF4FC591BD
:10015000D491FC01EC5DFF4FA591B491611109C0F0
:100160009FB7F8948881209582238883EC912E2371
:100170000BC0623061F49FB7F8948881322F3095BC
:1001800083238883EC912E2B2C939FBF06C08FB7BF
:10019000F894E8812E2B28838FBFDF91CF910895AB
:1001A0008F7087B987B187B9369A3699FECF84B1F7
:1001B00025B190E0922B08953FB7F89480916B00A1
:1001C00090916C00A0916D00B0916E0022B708B6BE
:1001D00001FE05C02F3F19F00196A11DB11D3FBFC3
:1001E000BA2FA92F982F8827820F911DA11DB11D0D
:1001F000BC01CD0143E0660F771F881F991F4A9508
:10020000D1F70895CF92DF92EF92FF92CF93DF93D1
:100210006B017C01D1DFEB01C114D104E104F104D5
:1002200099F0CADF6C1B7D0B683E7340A8F3C114C4
:10023000D104E104F10481F381E0C81AD108E10896
:10024000F108C851DC4FEDCFDF91CF91FF90EF90D7
:10025000DF90CF9008952FB7F89460916700709168
:1002600068008091690090916A002FBF0895CF9334
:10027000DF93EC0161E083E0F2DEC330D10528F0CA
:10028000CC0FDD1F24972197F1F7DF91CF910895CF
:10029000CF93DF93EC0160E083E0E1DEC330D10572
:1002A00028F0CC0FDD1F24972197F1F7DF91CF9134
:1002B00008951F920F920FB60F9211242F933F9320
:1002C0008F939F93AF93BF93809167009091680045
:1002D000A0916900B0916A003091660026E0230F7A
:1002E0002D3730F029E8230F0396A11DB11D03C05F
:1002F0000296A11DB11D2093660080936700909324
:100300006800A0936900B0936A0080916B0090919F
:100310006C00A0916D00B0916E000196A11DB11D01
:1003200080936B0090936C00A0936D00B0936E006F
:10033000BF91AF919F918F913F912F910F900FBEE1
:100340000F901F90189581B781BF8AB582608ABDD2
:100350008AB581608ABD83B7887F836083BF7894C4
:1003600089B7826089BF80B7807F80BF80B780688F
:1003700080BF80B7806480BF8CB580648CBD8FEFF8
:100380008DBD80B7876080BF86B18877866886B963
:10039000379A60E081E8B5DE60E082E8B2DE61E0D5
:1003A00081E0AFDE60E083E0ACDE82E8F9DE8D3B29
:1003B00092403CF061E081E0A4DE61E081E04FDE4C
:1003C00003C060E081E09DDE82E8EADE7C01C1E0FE
:1003D00083E3E816F1040CF4C0E023E3E216F10431
:1003E00034F461E081E08DDE60E081E038DE809110
:1003F00065008C1749F02FDF6093610070936200F5
:100400008093630090936400C093650082E8C8DE27
:100410006C0183E3C816D1041CF460E081E071DE56
:100420001ADF4B015C01C0E016DFDC01CB0188194B
:100430009909AA09BB0984369105A105B10538F4CB
:1004400081E8AEDE853691057CF3C1E0EDCF23E394
:10045000C216D1041CF461E081E053DE809160009B
:100460008C1749F0F8DE609361007093620080930E
:10047000630090936400C0936000EDDECC2309F428
:1004800094CF23E3E216F1040CF08FCFC09061000B
:10049000D0906200E0906300F0906400DC01CB013A
:1004A0008C199D09AE09BF098C329140A105B10597
:1004B00008F47BCF61E083E024DE61E083E0CFDD00
:1004C00064E670E080E090E09DDE88E293E2E0DEAA
:1004D00084E991E1CCDEC0E2D0E09DECC92E92E34C
:1004E000D92E95E0E92E9DE5F92E80E392E0F7FE06
:1004F00004C0CEDE80E496E003C0CADE80E392E072
:10050000B6DECC0CDD1CEE1CFF1C219771F780E3DE
:1005100092E0BEDE80E090E0AADE60E083E0F1DD04
:1005200068EE73E080E090E06DDE3FCFF894FFCF9F
:00000001FF
