:100000001DC02CC02BC02AC029C0C0C027C026C01C
:1000100025C024C023C022C021C020C01FC00000B2
:100020000000370000000000380002020202020255
:1000300001020408102001020000040011241FBE68
:10004000CFE5D2E0DEBFCDBF20E0A0E6B0E001C04A
:100050001D92A936B207E1F7E3D025C1D1CFE8E37D
:10006000F0E09491E2E3F0E02491ECE2F0E0E4913E
:10007000EE2381F19923B1F0913019F49AB59F776D
:1000800004C0923021F49AB59F7D9ABD0BC0933085
:1000900021F490B79F7D90BF05C0943019F49CB5B2
:1000A0009F7D9CBDF0E0EE0FFF1FEC5DFF4FA59123
:1000B000B491811109C09FB7F8948C91E22FE0951B
:1000C000E823EC939FBF08958FB7F894EC91E22B4F
:1000D000EC938FBF089582E087B987B187B9369ACC
:1000E0003699FECF84B125B190E0922B0895CF933D
:1000F000DF9387FF11C08F7741F0813041F082306C
:1001000041F0833041F08FEF07C085E005C082E009
:1001100003C084E001C083E090E0FC01E05DFF4F9C
:100120002491FC01E65DFF4F8491882361F190E00A
:10013000880F991FFC01E25EFF4FC591D491FC012D
:10014000EC5DFF4FA591B491611109C09FB7F89480
:100150008881209582238883EC912E230BC0623006
:1001600061F49FB7F8948881322F30958323888378
:10017000EC912E2B2C939FBF06C08FB7F894E8818B
:100180002E2B28838FBFDF91CF9108951F920F925E
:100190000FB60F9211242F933F938F939F93AF939A
:1001A000BF938091650090916600A0916700B09127
:1001B00068003091640026E0230F2D3730F029E8E5
:1001C000230F0396A11DB11D03C00296A11DB11DF1
:1001D000209364008093650090936600A09367006D
:1001E000B09368008091600090916100A0916200DE
:1001F000B09163000196A11DB11D809360009093A2
:100200006100A0936200B0936300BF91AF919F9192
:100210008F913F912F910F900FBE0F901F901895C7
:1002200081B781BF8AB582608ABD8AB581608ABD87
:1002300083B7887F836083BF789489B7826089BFE2
:1002400080B7807F80BF80B7806880BF80B78064C0
:1002500080BF8CB580648CBD8FEF8DBD80B787600B
:1002600080BF86B18877866886B9379A60E082E871
:100270003EDF61E082E03BDF2EDF8D3B924034F0D9
:1002800061E082E034DF81E0EADE03C060E082E02A
:100290002EDF21DF853691057CF761E082E027DFE4
:0A02A00080E0DDDEE9CFF894FFCF27
:00000001FF
